S00C0000746573742E7372656358
S11300000C945A000C9477000C9477000C948B0297
S11300100C9477000C9477000C9477000C94770080
S11300200C9477000C9477000C9477000C949D0149
S11300300C9477000C94B0010C9477000C94770026
S11300400C9477000C9477000C9477000C94770050
S11300500C9477000C9477000C9477000C94770040
S11300600C9477000C9477000C9477000C94770030
S11300700C9477000C9477000C9477000C94770020
S11300800C9477000C9477000C9477000C94770010
S11300900C9477000C9477000C9477000C94770000
S11300A00C9477000C9477000C9477000C947700F0
S11300B00C94770011241FBECFEFD8E0DEBFCDBF74
S11300C011E0A0E0B1E0E0E0F9E002C005900D929B
S11300D0A431B107D9F721E0A4E1B1E001C01D9238
S11300E0A631B207E1F70E94C0020C947E040C947E
S11300F000001092090110920801BC0180E090E018
S11301000E94330320E030E04AEF51E40E94990357
S11301100E940403E8E8F0E0718360832081318168
S113012081E090E002C0880F991F2A95E2F7EFE67C
S1130130F0E09081892B8083789408958FEF8AB9B9
S11301408FE084B984B18F7784B985B1806885B92B
S113015087B1807F87B988B18F6088B9E8E6F0E01D
S1130160808181608083EBE6F0E080818068808319
S11301708DB181608DB9E0E8F0E080818260808398
S1130180E1E8F0E08081896180838FEF90E09093D3
S11301908700809386008091050190E09093890008
S11301A080938800EFE6F0E0808183608083089587
S11301B020E030E008C0E3EFF1E03197F1F700C050
S11301C000002F5F3F4F28173907A8F308959FEFCA
S11301D09BB98A3030F4E82FF0E0E65FFE4F80816F
S11301E08BB981E090E002C0880F991F6A95E2F70D
S11301F0809585B985E090E00E94D8008FEF85B99D
S113020008950F931F93CF93DF938C019C01369530
S113021027953695279536952795A5ECB0E20E944B
S11302204D04AC01529542954F7045275F704527A8
S11302309A01ADECBCEC0E944D0496958795969579
S11302408795969587959C01220F331F880F991FD8
S1130250880F991F880F991F820F931F63E0242F23
S1130260281B822F0E94E700980136952795369522
S11302702795ABE7B4E10E944D04AC015695479530
S11302809A01ADECBCEC0E944D0496958795969529
S11302908795969587959C01220F331F880F991F88
S11302A0880F991F880F991F820F931F62E0242FD4
S11302B0281B822F0E94E7009801ADECBCEC0E9441
S11302C04D04EC01D695C795D695C795D695C79597
S11302D09E010E944D0496958795969587959695CF
S11302E087959C01220F331F880F991F880F991F30
S11302F0880F991F820F931F61E02C2F281B822FD8
S11303000E94E700CE01880F991FCC0FDD1FCC0F90
S1130310DD1FCC0FDD1FC80FD91F60E0802F8C1BA1
S11303200E94E700DF91CF911F910F91089590E013
S1130330909389008093880008951F920F920FB6BE
S11303400F9211248F9380911501882319F08EB197
S113035081608EB98F910F900FBE0F901F901895EA
S11303601F920F920FB60F9211248F938EB18E7F2E
S11303708EB98F910F900FBE0F901F90189578949F
S113038008959091150181E0911180E08093150109
S113039080911501882329F0809105010E9497011D
S11303A0089580E00E9497010895CF93DF9390E031
S11303B002C0959587956A95E2F7EC01C170DD2737
S11303C080FD08C082E390E00E947900CD2B21F4E7
S11303D081E003C080E001C080E0DF91CF91089507
S11303E01F93CF93DF9386B160E00E94D501C82F9D
S11303F086B161E00E94D501D82F86B162E00E94E7
S1130400D501182F86B163E00E94D501CC23E9F011
S113041090910401911119C02091060130910701B6
S113042025503109309307012093060120910601DC
S1130430309107012E31310508F061C02CE231E022
S113044030930701209306015AC0DD23E9F090910F
S11304500301911119C02091060130910701215027
S11304603109309307012093060120910601309150
S113047007012E31310508F042C02CE231E03093FF
S11304800701209306013BC01123E1F09091020182
S1130490911118C020910601309107012F5F3F4F41
S11304A03093070120930601209106013091070142
S11304B02D32314020F12EE130E0309307012093BA
S11304C006011DC08823D9F090910101911117C034
S11304D020910601309107012B5F3F4F30930701B4
S11304E02093060120910601309107012D323140FD
S11304F030F02EE130E03093070120930601C093E1
S11305000401D09303011093020180930101DF9150
S1130510CF911F9108951F920F920FB60F9211243D
S11305202F933F934F935F936F937F938F939F93F7
S1130530AF93BF93EF93FF9383B167E00E94D5011C
S1130540882359F090910001911107C02091140162
S113055091E0211190E09093140180930001FF91A8
S1130560EF91BF91AF919F918F917F916F915F9127
S11305704F913F912F910F900FBE0F901F901895A0
S11305800E949E000E94BF01209106013091070144
S113059040E050E060E377E585E090E00E942E04BF
S11305A049015A0186B18F30B1F00E94F0012091C7
S11305B006013091070140E050E060E377E585E013
S11305C090E00E942E0449015A0180910601909105
S11305D007010E94010180911401882381F00E9487
S11305E0C10175016401F694E794D794C794C601D8
S11305F00E94D8000E94C101C6010E94D80082E373
S113060090E00E94D800CECF0E94780388F09F57D4
S113061098F0B92F9927B751B0F0E1F0660F771F22
S1130620881F991F1AF0BA95C9F714C0B13091F018
S11306300E949203B1E008950C949203672F782FDF
S11306408827B85F39F0B93FCCF3869577956795DD
S1130650B395D9F73EF490958095709561957F4F49
S11306608F4F9F4F0895E89409C097FB3EF49095EF
S11306708095709561957F4F8F4F9F4F9923A9F077
S1130680F92F96E9BB279395F69587957795679506
S1130690B795F111F8CFFAF4BB0F11F460FF1BC04A
S11306A06F5F7F4F8F4F9F4F16C0882311F096E9DD
S11306B011C0772321F09EE8872F762F05C066238B
S11306C071F096E8862F70E060E02AF09A95660F44
S11306D0771F881FDAF7880F9695879597F90895FD
S11306E057FD9058440F551F59F05F3F71F04795DF
S11306F0880F97FB991F61F09F3F79F087950895C4
S1130700121613061406551FF2CF4695F1DF08C0E2
S1130710161617061806991FF1CF869571056105FF
S113072008940895E894BB2766277727CB0197F9A7
S113073008950E94AC030C941D040E940F0438F029
S11307400E94160420F0952311F00C9406040C94D6
S11307500C0411240C9493030E94700370F3959F6E
S1130760C1F3950F50E0551F629FF001729FBB27A4
S1130770F00DB11D639FAA27F00DB11DAA1F649F40
S11307806627B00DA11D661F829F2227B00DA11DF3
S1130790621F739FB00DA11D621F839FA00D611D79
S11307A0221F749F3327A00D611D231F849F600D9A
S11307B0211D822F762F6A2F11249F5750409AF0C3
S11307C0F1F088234AF0EE0FFF1FBB1F661F771F4F
S11307D0881F91505040A9F79E3F510580F00C941A
S11307E006040C9493035F3FE4F3983ED4F3869598
S11307F077956795B795F795E7959F5FC1F7FE2BBA
S1130800880F911D9695879597F9089597F99F6795
S113081080E870E060E008959FEF80EC0895002484
S11308200A941616170618060906089500240A9451
S113083012161306140605060895092E0394000CD7
S113084011F4882352F0BB0F40F4BF2B11F460FF66
S113085004C06F5F7F4F8F4F9F4F0895052E97FB06
S11308601EF400940E94450457FD07D00E945C04C6
S113087007FC03D04EF40C944504509540953095F4
S113088021953F4F4F4F5F4F0895909580957095F8
S113089061957F4F8F4F9F4F0895A29FB001B39FE3
S11308A0C001A39F700D811D1124911DB29F700D75
S11308B0811D1124911D0895A1E21A2EAA1BBB1BB0
S11308C0FD010DC0AA1FBB1FEE1FFF1FA217B30718
S11308D0E407F50720F0A21BB30BE40BF50B661F2E
S11308E0771F881F991F1A9469F7609570958095F2
S11308F090959B01AC01BD01CF010895F894FFCF01
S11309000101010101FF6400010081CF9286CCA4A2
S1070910A08F8084AC
S9030000FC
