S00C0000746573742E7372656358
S11300000C945A000C9477000C9477000C94C5025D
S11300100C9477000C9477000C9477000C94770080
S11300200C9477000C9477000C9477000C94810165
S11300300C9477000C9494010C9477000C94770042
S11300400C9477000C9477000C9477000C94770050
S11300500C9477000C9477000C9477000C94770040
S11300600C9477000C9477000C9477000C94770030
S11300700C9477000C9477000C9477000C94770020
S11300800C9477000C9477000C9477000C94770010
S11300900C9477000C9477000C9477000C94770000
S11300A00C9477000C9477000C9477000C947700F0
S11300B00C94770011241FBECFEFD8E0DEBFCDBF74
S11300C011E0A0E0B1E0E2E2F7E002C005900D9299
S11300D0A231B107D9F721E0A2E1B1E001C01D923C
S11300E0A431B207E1F70E94F9020C948F030C9437
S11300F000008FEF8AB98FE084B984B18F7784B917
S113010085B1806885B987B1807F87B988B18F60F0
S113011088B987B18F7C87B988B1806388B9E8E6EC
S1130120F0E0808181608083EBE6F0E0808180688C
S1130130808308959FEF9BB98A3030F4E82FF0E074
S1130140E85FFE4F80818BB981E090E002C0880FA8
S1130150991F6A95E2F7809585B981EE94E001973D
S1130160F1F700C000008FEF85B908950F931F9336
S1130170CF93DF938C019C0136952795369527956F
S113018036952795A5ECB0E20E945E03AC0152952A
S113019042954F7045275F7045279A01ADECBCEC42
S11301A00E945E0396958795969587959695879573
S11301B09C01220F331F880F991F880F991F880FE6
S11301C0991F820F931F63E0242F281B822F0E9404
S11301D09A0098013695279536952795ABE7B4E1B3
S11301E00E945E03AC01569547959A01ADECBCECB8
S11301F00E945E0396958795969587959695879523
S11302009C01220F331F880F991F880F991F880F95
S1130210991F820F931F62E0242F281B822F0E94B4
S11302209A009801ADECBCEC0E945E03EC01D695FB
S1130230C795D695C795D695C7959E010E945E032E
S11302409695879596958795969587959C01220F07
S1130250331F880F991F880F991F880F991F820FCA
S1130260931F61E02C2F281B822F0E949A00CE013D
S1130270880F991FCC0FDD1FCC0FDD1FCC0FDD1FA6
S1130280C80FD91F60E0802F8C1B0E949A00DF9159
S1130290CF911F910F91089520E030E008C0E9EF5D
S11302A0F0E03197F1F700C000002F5F3F4F2817AF
S11302B03907A8F308958DB181608DB9E0E8F0E0C5
S11302C0808182608083E1E8F0E0808189618083BD
S11302D08FEF90E0909387008093860080910501D2
S11302E090E09093890080938800EFE6F0E08081AD
S11302F083608083089590E09093890080938800C0
S113030008951F920F920FB60F9211248F9380912C
S11303101301882319F08EB181608EB98F910F90EB
S11303200FBE0F901F9018951F920F920FB60F9249
S113033011248F938EB18E7F8EB98F910F900FBE43
S11303400F901F901895789408959091130181E06F
S113035089278093130180911301882329F08091C8
S113036005010E947B01089580E00E947B010895AD
S113037090E002C0959587956A95E2F79C012170FB
S1130380332780FD0AC083ED90E30197F1F700C0A5
S11303900000232B21F481E0089580E0089580E09B
S11303A0089586B141E0582F517080FD40E086B138
S11303B031E0682F627081FD30E086B121E0782F52
S11303C0747082FD20E086B191E0E82FE87083FD2F
S11303D090E086B18F7E86B981117CC051111DC019
S11303E080910401811119C0609106017091070187
S11303F065507109709307016093060160910601CD
S1130400709107016E31710508F0B6C06CE271E0BD
S11304107093070160930601AFC061111DC0809104
S11304200301811119C060910601709107016150A7
S11304307109709307016093060160910601709140
S113044007016E31710508F097C06CE271E070939A
S113045007016093060190C071111DC080910201D3
S1130460811119C060910601709107016F5F7F4F80
S11304707093070160930601609106017091070172
S11304806D32714008F478C06EE170E0709307013A
S11304906093060171C0E1116FC080910101811167
S11304A06BC060910601709107016B5F7F4F709381
S11304B007016093060160910601709107016D3296
S11304C0714008F459C06EE170E0709307016093C5
S11304D0060152C086B18F7D86B981114DC051117C
S11304E012C08091040181110EC080910501863FE4
S11304F030F480910501865F809305013DC08FEF44
S11305008093050139C0611112C0809103018111EA
S11305100EC0809105018B3F30F4809105018B5F03
S11305208093050129C08FEF8093050125C07111C7
S113053011C08091020181110DC0809105018530A7
S113054030F08091050185508093050115C010920B
S1130550050112C0E11110C08091010181110CC08C
S1130560809105018A3030F0809105018A50809392
S1130570050102C010920501409304013093030168
S1130580209302019093010108951F920F920FB6D8
S11305900F9211242F933F934F935F936F937F9305
S11305A08F939F93AF93BF93EF93FF9383B167E0D0
S11305B00E94B801882351F090910001911106C066
S11305C02091120191E092279093120180930001EF
S11305D0FF91EF91BF91AF919F918F917F916F9117
S11305E05F914F913F912F910F900FBE0F901F90ED
S11305F018950E945B010E94A3010E94790020913A
S113060006013091070140E050E060E67EEA8AE0AE
S113061090E00E943F0349015A0186B18F30B1F046
S11306200E94D101209106013091070140E050E081
S113063060E67EEA8AE090E00E943F0349015A01A5
S113064080910601909107010E94B60080911201E9
S1130650882381F00E94A50175016401F694E79452
S1130660D794C794C6010E944C010E94A501C601FB
S11306700E944C0185E090E00E944C01CECF052EF3
S113068097FB1EF400940E94560357FD07D00E9466
S11306906D0307FC03D04EF40C945603509540951B
S11306A0309521953F4F4F4F5F4F0895909580951A
S11306B0709561957F4F8F4F9F4F0895A29FB00112
S11306C0B39FC001A39F700D811D1124911DB29F82
S11306D0700D811D1124911D0895A1E21A2EAA1BEB
S11306E0BB1BFD010DC0AA1FBB1FEE1FFF1FA217DE
S11306F0B307E407F50720F0A21BB30BE40BF50BDB
S1130700661F771F881F991F1A9469F76095709563
S1130710809590959B01AC01BD01CF010895F8949B
S1050720FFCF05
S11307220101010101FF640081CF9286CCA4A08F54
S10507328084BD
S9030000FC
