:100000000C945A000C9477000C9477000C946402C2
:100010000C9477000C9477000C9477000C94770084
:100020000C9477000C9477000C9477000C947A0170
:100030000C9477000C948D010C9477000C9477004D
:100040000C9477000C9477000C9477000C94770054
:100050000C9477000C9477000C9477000C94770044
:100060000C9477000C9477000C9477000C94770034
:100070000C9477000C9477000C9477000C94770024
:100080000C9477000C9477000C9477000C94770014
:100090000C9477000C9477000C9477000C94770004
:1000A0000C9477000C9477000C9477000C947700F4
:1000B0000C94770011241FBECFEFD8E0DEBFCDBF78
:1000C00011E0A0E0B1E0ECE5F6E002C005900D9291
:1000D000A231B107D9F721E0A2E1B1E001C01D9240
:1000E000A431B207E1F70E9498020C942C030C94FF
:1000F00000008FEF8AB98FE084B984B18F7784B91B
:1001000085B1806885B987B1807F87B988B18F60F4
:1001100088B9E8E6F0E0808181608083EBE6F0E07A
:100120008081806880838DB181608DB9E0E8F0E0E6
:10013000808182608083E1E8F0E080818961808352
:100140008FEF90E090938700809386008091070165
:1001500090E09093890080938800EFE6F0E0808142
:100160008360808308959FEF9BB98A3030F4E82F35
:10017000F0E0E85FFE4F80818BB981E090E002C043
:10018000880F991F6A95E2F7809585B983EC99E00D
:100190000197F1F700C000008FEF85B908950F9324
:1001A0001F93CF93DF938C019C013695279536954D
:1001B000279536952795A5ECB0E20E94FB02AC018D
:1001C000529542954F7045275F7045279A01ADECD7
:1001D000BCEC0E94FB02969587959695879596951F
:1001E00087959C01220F331F880F991F880F991F35
:1001F000880F991F820F931F63E0242F281B822FE3
:100200000E94B30098013695279536952795ABE760
:10021000B4E10E94FB02AC01569547959A01ADEC02
:10022000BCEC0E94FB0296958795969587959695CE
:1002300087959C01220F331F880F991F880F991FE4
:10024000880F991F820F931F62E0242F281B822F93
:100250000E94B3009801ADECBCEC0E94FB02EC01E3
:10026000D695C795D695C795D695C7959E010E94F8
:10027000FB029695879596958795969587959C010F
:10028000220F331F880F991F880F991F880F991FFE
:10029000820F931F61E02C2F281B822F0E94B30036
:1002A000CE01880F991FCC0FDD1FCC0FDD1FCC0FA7
:1002B000DD1FC80FD91F60E0802F8C1B0E94B30088
:1002C000DF91CF911F910F91089520E030E008C099
:1002D000E3EFF1E03197F1F700C000002F5F3F4FEF
:1002E00028173907A8F3089590E090938900809328
:1002F000880008951F920F920FB60F9211248F93CA
:1003000080911301882319F08EB181608EB98F918D
:100310000F900FBE0F901F9018951F920F920FB65F
:100320000F9211248F938EB18E7F8EB98F910F9083
:100330000FBE0F901F901895789408959091130117
:1003400081E089278093130180911301882329F08C
:10035000809107010E947401089580E00E94740159
:10036000089590E002C0959587956A95E2F79C0103
:100370002170332780FD0AC087EA91E60197F1F7E3
:1003800000C00000232B21F481E0089580E008954F
:1003900080E0089586B141E0582F517080FD40E023
:1003A00086B131E0682F627081FD30E086B121E0D6
:1003B000782F747082FD20E086B191E0E82FE8701C
:1003C00083FD90E051111DC080910401811119C07D
:1003D00060910501709106016550710970930601E5
:1003E0006093050160910501709106016E31710500
:1003F00008F061C06CE271E0709306016093050142
:100400005AC061111DC080910301811119C0609112
:1004100005017091060161507109709306016093A6
:10042000050160910501709106016E31710508F0BA
:1004300042C06CE271E070930601609305013BC01D
:1004400071111CC080910201811118C060910501D9
:10045000709106016F5F7F4F7093060160930501F5
:1004600060910501709106016D32714020F16EE1DD
:1004700070E070930601609305011DC0E1111BC07F
:1004800080910101811117C06091050170910601F1
:100490006B5F7F4F709306016093050160910501CA
:1004A000709106016D32714030F06EE170E0709332
:1004B00006016093050140930401309303012093EA
:1004C00002019093010108951F920F920FB60F92AF
:1004D00011242F933F934F935F936F937F938F9349
:1004E0009F93AF93BF93EF93FF9383B167E00E9415
:1004F000B101882351F090910001911106C0209123
:10050000120191E092279093120180930001FF91D4
:10051000EF91BF91AF919F918F917F916F915F917B
:100520004F913F912F910F900FBE0F901F901895F4
:100530000E9479000E949C012091050130910601E2
:1005400040E050E060E377E585E090E00E94DC0267
:1005500049015A0186B18F30B1F00E94CA01209141
:1005600005013091060140E050E060E377E585E069
:1005700090E00E94DC0249015A01809105019091AE
:1005800006010E94CF0080911201882381F00E9411
:100590009E0175016401F694E794D794C794C6014F
:1005A0000E9465010E949E01C6010E94650182E3CE
:1005B00090E00E946501CECF052E97FB1EF40094BB
:1005C0000E94F30257FD07D00E940A0307FC03D0E4
:1005D0004EF40C94F30250954095309521953F4F81
:1005E0004F4F5F4F089590958095709561957F4F1F
:1005F0008F4F9F4F0895A29FB001B39FC001A39F4B
:10060000700D811D1124911DB29F700D811D11244B
:10061000911D0895A1E21A2EAA1BBB1BFD010DC05E
:10062000AA1FBB1FEE1FFF1FA217B307E407F507A2
:1006300020F0A21BB30BE40BF50B661F771F881F7E
:10064000991F1A9469F760957095809590959B0114
:0C065000AC01BD01CF010895F894FFCF6C
:10065C0001010101016400FF81CF9286CCA4A08F1F
:02066C00808488
:00000001FF
